:020000040800F2
:1000000000000220499900089174000893740008C8
:1000100095740008977400089974000800000000A7
:100020000000000000000000000000009B740008B9
:100030009D740008000000009F740008A17400086F
:100040009D9900089D9900089D9900089D990008B8
:100050009D9900089D9900089D9900089D990008A8
:100060009D9900089D9900089D9900089D99000898
:100070009D9900089D9900089D9900089D99000888
:100080009D9900089D9900089D9900089D99000878
:100090009D9900089D9900089D9900089D99000868
:1000A0009D9900089D9900089D9900089D99000858
:1000B0009D9900089D9900089D9900089D99000848
:1000C0009D9900089D9900089D9900089D99000838
:1000D0009D9900089D9900089D9900089D99000828
:1000E0009D9900089D990008000000009D99000856
:1000F0009D9900089D9900089D9900089D99000808
:100100009D9900089D9900089D9900089D990008F7
:100110009D9900089D9900089D9900089D990008E7
:100120009D9900089D9900089D9900089D990008D7
:100130009D9900089D9900089D9900089D990008C7
:1001400000000000000000000000000000000000AF
:100150009D9900089D9900089D9900089D990008A7
:100160009D9900089D990008A9740008B9740008B9
:100170009D990008C97400089D99000800000000BE
:100180009D9900089D9900089D9900089D99000877
:100190009D9900089D9900089D9900089D99000867
:1001A0009D9900089D9900089D9900080000000095
:1001B0009D9900089D9900089D9900089D99000847
:1001C0009D9900089D9900080000000000000000B3
:1001D00000000000000000009D99000800000000E1
:1001E000000000000000000000000000000000000F
:1001F00000000000000000009D9900089D99000883
:100200009D9900089D990008000000009D99000834
:100210009D9900089D9900089D9900089D990008E6
:100220009D990008000000009D9900080000000052
:100230009D9900089D990008000000009D99000804
:100240009D9900089D9900089D9900089D990008B6
:100250009D9900089D9900089D9900089D990008A6
:100260009D9900089D9900089D9900089D99000896
:100270009D9900089D9900089D99000800000000C4
:100280009D9900089D9900089D9900089D99000876
:10029000000000009D9900089D99000800000000E2
:1002A000000000009D9900089D9900089D99000894
:1002B0009D9900089D9900089D9900089D99000846
:0C02C0009D9900089D9900089D99000878
:1002CC0010B5054C237833B9044B13B10448AFF384
:1002DC0000800123237010BD0401002000000000E9
:1002EC00F899000808B5034B1BB103490348AFF359
:1002FC00008008BD0000000008010020F8990008EB
:10030C0010B58CB0002409940A940B942422214635
:10031C00684609F03EFB1F481F4B03604460846035
:10032C00046104234361047644760123C36180F89D
:10033C0020408462C4620463C463046480F8444053
:10034C00836401F005FBD8B90023099309A911486E
:10035C0001F020FEB8B9114B009306230193002342
:10036C00029340F2FF7203920422049205938DF8DB
:10037C0021306946074800F0F5FC38B90CB010BDC7
:10038C0000F03CFAE0E700F039FAE4E700F036FA66
:10039C00F4E700BF20010020002002400004002AE6
:1003AC0070B5B8B004460021339134913591369133
:1003BC003791B82204A809F0ECFA2268344B9A421F
:1003CC0001D038B070BD4FF400220023CDE90423D6
:1003DC0002230693102207920422089209930A938F
:1003EC00C0230B9304A804F061FB00284CD1294BCB
:1003FC00D3F8D82042F02002C3F8D820D3F8D82064
:10040C0002F020020092009AD3F8E02042F004029D
:10041C00C3F8E020D3F8E02002F004020192019A24
:10042C00D3F8E02042F00102C3F8E020D3F8E0203A
:10043C0002F001020292029AD3F8E02042F002028A
:10044C00C3F8E020D3F8E03003F002030393039BDE
:10045C0011233393032634960025359533AC21466E
:10046C000D4801F0BFFF99233393349635952146FF
:10047C000A4801F0B7FF0223339334963595214691
:10048C00074801F0AFFF9CE700F0B8F9AFE700BFF9
:10049C000020024000440258000802580000025894
:1004AC000004025808B50548054B036001F064FED2
:1004BC0000B908BD00F0A2F9FBE700BF90010020D5
:1004CC000044024802680A4B9A4200D0704782B03E
:1004DC0003F18053D3F8DC2042F40032C3F8DC2063
:1004EC00D3F8DC3003F400330193019B02B0704766
:1004FC000044024808B50548054B036001F03CFF79
:10050C0000B908BD00F07AF9FBE700BFB801002084
:10051C000040024802680A4B9A4200D0704782B0F1
:10052C00084BD3F8DC2042F48032C3F8DC20D3F83B
:10053C00DC3003F480330193019B02B0704700BFA1
:10054C0000400248004402582DE9F04F8BB005AD35
:10055C00002405940694079408940994614BD3F8ED
:10056C00E02042F00402C3F8E020D3F8E02002F0CF
:10057C0004020092009AD3F8E02042F08002C3F803
:10058C00E020D3F8E02002F080020192019AD3F827
:10059C00E02042F00102C3F8E020D3F8E02002F0A2
:1005AC0001020292029AD3F8E02042F00202C3F850
:1005BC00E020D3F8E02002F002020392039AD3F871
:1005CC00E02042F00802C3F8E020D3F8E03003F05A
:1005DC0008030493049BDFF818A1224640F26641FD
:1005EC00504602F0BDF8404F2246E021384602F05A
:1005FC00B7F8DFF8009122460121484602F0B0F826
:10060C00DFF8F4B022460421584602F0A9F84CF267
:10061C00020305934FF00308CDF818800794294680
:10062C00384601F0DFFE02230593CDF818800794BD
:10063C0029462E4801F0D6FE40F26643059301266A
:10064C000696079408942946504601F0CBFEE02309
:10065C0005930696079408942946384601F0C2FE85
:10066C0005960696079408942946484601F0BAFE6A
:10067C0041F204030593CDF81880079429464846A7
:10068C0001F0B0FE4FF4806305930694079429465D
:10069C00484601F0A7FE4FF400730593CDF818807F
:1006AC0007942946504601F09DFE4FF4E053059304
:1006BC004FF48813069307942946384601F092FEAE
:1006CC00042305930696079408942946584601F08E
:1006DC0089FE21464FF0007000F07EFA0BB0BDE8A9
:1006EC00F08F00BF0044025800080258001C02584A
:1006FC000000025800040258000C025808B51248B9
:10070C00124B0360124B4360002383600122C260D2
:10071C00036143618361C361036202F03DF850B928
:10072C000021094802F008F940B90021064802F0FE
:10073C005BF930B908BD00F061F8F1E700F05EF844
:10074C00F3E700F05BF8F5E7F0010020005C0040F7
:10075C0073216000F0B589B00023039304930593D3
:10076C00069307930268214B9A4201D009B0F0BD61
:10077C001F4CD4F8E03043F00403C4F8E030D4F854
:10078C00E03003F004030093009BD4F8E03043F016
:10079C000103C4F8E030D4F8E03003F00103019316
:1007AC00019B4FF4007303931227049704260796BA
:1007BC0003AD29460F4801F015FE4FF480730393E7
:1007CC000497002305930693079629460A4801F0DF
:1007DC0009FED4F8E83043F40003C4F8E830D4F848
:1007EC00E83003F400030293029BBFE7005C004077
:1007FC0000440258000802580000025872B6FEE786
:10080C0000B59DB04C22002109A809F0C2F82022A5
:10081C00002101A809F0BDF8042002F0CBFF002351
:10082C000093204B9A6922F440429A619B6903F42D
:10083C0040430093009B1B4B9B6913F4005FFAD061
:10084C00212309934FF4A0230A9301220F92022330
:10085C0012931393149314211591169217931893C2
:10086C000C23199300231A931B9309A803F018F86F
:10087C00A0B93F2301930321029100230393049316
:10088C004023059306934FF480620792089301A8C6
:10089C0003F0D4FC20B91DB05DF804FBFFF7AEFFEC
:1008AC00FFF7ACFF0048025810B5AEB0B8220021DB
:1008BC00684609F06EF841F208020023CDE90023E6
:1008CC0002230A9310220B920C930D9303230E9385
:1008DC004FF440630F934FF4005317934FF480532E
:1008EC002093684604F0E2F808B92EB010BDFFF76B
:1008FC0085FF000010B500F01BF9FFF781FFFFF733
:10090C00D3FFFFF721FEFFF7CDFDFFF7F3FDFFF758
:10091C00F5FE00F029F800F053F807F083FC07F01F
:10092C00C1FCFFF7EDFC07F019FD0B4C0B4BA4467B
:10093C000FCBACE807002CF8023B1B0C8CF80030FA
:10094C000E21074B1980204608F000F84FF47A70FE
:10095C0000F02EF9E9E700BF48020020109A0008C9
:10096C00440200207047000008B51348134B036085
:10097C004FF480034360002383600322C260036151
:10098C0043614FF080628261C361036243628362A0
:10099C00C3624FF0804242638363C3630364436466
:1009AC008364C36403654365836505F06FFD00B91B
:1009BC0008BDFFF723FFFBE7500300200030014088
:1009CC0008B51348134B03604FF4800343600023B6
:1009DC0083600322C260036143614FF080628261D5
:1009EC00C361036243628362C3624FF0804242631D
:1009FC008363C363036443648364C36403654365B3
:100A0C00836505F043FD00B908BDFFF7F7FEFBE772
:100A1C00C80200200038004000B58BB000230593BD
:100A2C0006930793089309930368294A934205D0C8
:100A3C00284A934226D00BB05DF804FB264BD3F822
:100A4C00F02042F48052C3F8F020D3F8F02002F4E6
:100A5C0080520192019AD3F8E02042F00202C3F8CE
:100A6C00E020D3F8E03003F002030293029B38231A
:100A7C000593022306930523099305A9174801F052
:100A8C00B1FCD8E7144BD3F8E82042F48042C3F809
:100A9C00E820D3F8E82002F480420392039AD3F8BA
:100AAC00E02042F00202C3F8E020D3F8E03003F07B
:100ABC0002030493049B4FF46043059302230693B3
:100ACC000523099305A9054801F08CFCB3E700BF89
:100ADC000030014000380040004402580004025825
:100AEC00104B1B780BB90120704710B504464FF41E
:100AFC007A70B0FBF3F30C4A1068B0FBF3F001F022
:100B0C00F1FB68B90F2C01D901200AE00022214623
:100B1C004FF0FF3001F0B4FB044B1C60002000E0F0
:100B2C00012010BD000000200C000020040000205B
:100B3C0010B5032001F086FB03F084FA0F498B6992
:100B4C00C3F303230E4AD35C03F01F03D8408B6915
:100B5C0003F00F03D35C03F01F0320FA03F3094ADD
:100B6C001360094B18600F20FFF7BAFF10B1012476
:100B7C00204610BD044601F08BFFF9E700440258F3
:100B8C00E49D0008080000200C000020034B1B789B
:100B9C00034A11680B441360704700BF000000202B
:100BAC00D8030020014B1868704700BFD803002001
:100BBC0038B50446FFF7F6FF0546B4F1FF3F02D007
:100BCC00044B1B781C44FFF7EDFF401BA042FAD3EB
:100BDC0038BD00BF0000002038B504460D4610F0AB
:100BEC00706F06D0064A506820EA04002843506013
:100BFC0038BD40F27A210348FFF7B4FEF2E700BF9C
:100C0C0000040058209A000810B400F1600C0D4C40
:100C1C00A0420CD05CF8210000F0004002F0F84239
:100C2C00134303434CF821305DF8044B70475CF8D8
:100C3C00210002F0F842134343F000434CF82130FA
:100C4C00F2E700BF0060025800F1600C094B9842BB
:100C5C0007D05CF8213023F000431A434CF82120D4
:100C6C0070475CF8213023F0004313434CF82130DB
:100C7C00704700BF0060025810B430300B0A9B0064
:100C8C0003F00C03C45801F01F014FF01F0C0CFAB9
:100C9C0001FC24EA0C0CC2F384628A404CEA020286
:100CAC00C2505DF8044B704710B414304B0E9B00CF
:100CBC0003F00403C458C1F304514FF0070C0CFAB1
:100CCC0001FC24EA0C0C8A404CEA0202C2505DF88A
:100CDC00044B7047134B984211D0D0F8C030C1F37D
:100CEC00130C23EA0C0C02F018020F4BD3401940E2
:100CFC00C1F313014CEA0101C0F8C0107047D0F8E1
:100D0C00B030C1F3130C23EA0C0C02F01802064BA2
:100D1C00D3400B40C3F313034CEA0303C0F8B030C9
:100D2C00704700BF00600258FFFF0F000C4B984249
:100D3C0009D0C1F313033BB9C1F3846101228A408A
:100D4C00C3691343C361704791FAA1F131B1B1FA90
:100D5C0081F101F01F0101228A40F1E72021F8E71F
:100D6C000060025870B582B004460D460023019312
:100D7C000368A249A24A8B4218BF934207D0A14AEA
:100D8C00934204D040F60D319F48FFF7EBFD6B68A2
:100D9C00062B18BF0C2B27D0B3F5067F00F2D080A2
:100DAC00B3F5007F13D2B3F58C7F18D8B3F5807FE1
:100DBC0008D3A3F58073954A22FA03F313F0010FBD
:100DCC0012D10CE0122B0FD0182B0DD007E0A3F58D
:100DDC0000738E4A22FA03F313F0010F04D140F68C
:100DEC000E318948FFF7BEFDAB68072B00F2B280CD
:100DFC00EB6840F2FF71864A8B4218BF934240F079
:100E0C00AF802B69042B18BF002B03D0013B022BA6
:100E1C0000F2AC8094F84430012B00F0AD802268D5
:100E2C00784B9A4200F0CB806969D36803F01C03BD
:100E3C001C2B02D0D36803F01C035B084FF6FF7227
:100E4C0022FA03F3994200F2CC802B69042B04D0D4
:100E5C0094F84430012B00F0CA80EA686C4B9A423B
:100E6C0000F0FA802B686B4A012B18BF934200F0FC
:100E7C00FF80694A934200F0FB80684A934200F07D
:100E8C00F780674A934200F0F38002F186621032D9
:100E9C00934200F0ED80634A934200F0E98002F146
:100EAC0086624032934200F0E3805F4A934200F046
:100EBC00DF8002F1866202F58072934200F0D880E6
:100ECC005A4A934200F0D48002F1042202F54012F7
:100EDC00934200F0CD8002F1866202F500629342EB
:100EEC0000F0C680524A934200F0C280514A9342AD
:100EFC0000F0BE80504A934200F0BA804F4A9342B1
:100F0C0000F0B6804E4A934200F0B2804D4A9342B4
:100F1C0000F0AE804C4A934200F0AA804B4A9342B8
:100F2C0000F0A6804A4A934200F0A280494A9342BC
:100F3C0000F09E8040F62C313348FFF713FD97E00C
:100F4C00B3F5407F3FF450AF40F2063293427FF44A
:100F5C0046AF49E740F60F312B48FFF703FD47E753
:100F6C004FF431612848FFF7FDFC4AE740F6113198
:100F7C002548FFF7F7FC4DE76B69A26C0132B3FB18
:100F8C00F2F122681F4B9A4215D0D36803F01C0370
:100F9C001C2B02D0D36803F01C035B084FF6FF72C6
:100FAC0022FA03F399427FF650AF40F615311648FA
:100FBC00FFF7D8FC49E7D36803F01803EDE769693C
:100FCC00D36803F018039B0840F6FF7222FA03F370
:100FDC0099427FF63AAF40F61C310B48FFF7C2FC42
:100FEC0033E740F621310848FFF7BCFC2DE740F60B
:100FFC0027310548FFF7B6FC2FE700BF0020024061
:10100C000021024000600258549A0008411004016B
:10101C000000FF4702003004040060080800900C38
:10102C001000C01040002019000180210004002A8B
:10103C00002090360040C03A0080F03E0000214372
:10104C00000052470000844B0000B84F000052C70C
:10105C00000021C3000084CB2268A04B9A421FD011
:10106C0022689F4B9A4248D022689E4B9A426ED07F
:10107C0094F85C30012B00F09A83012384F85C30E7
:10108C0023689A6812F0040F00F09180236E43F0ED
:10109C00200323660120002384F85C3002B070BD6D
:1010AC002B689149914A8B4218BF9342D8D0904AF1
:1010BC009342D5D08F4A9342D2D002F1866210323D
:1010CC009342CDD08C4A9342CAD002F1042202F54D
:1010DC0040129342C4D002F1866202F50062934240
:1010EC00BED0864A9342BBD0854A9342B8D040F6D4
:1010FC0032318448FFF736FCB2E72B687A497B4AD9
:10110C008B4218BF9342AFD0794A9342ACD0794A04
:10111C009342A9D002F1866210329342A4D0764A4F
:10112C009342A1D002F1042202F5401293429BD0CB
:10113C0002F1866202F50062934295D0704A9342A6
:10114C0092D040F636316F48FFF70CFC8CE72B68D9
:10115C006549664A8B4218BF934289D0644A9342D0
:10116C0086D0644A934283D002F186621032934255
:10117C003FF47EAF604A93423FF47AAF02F104220F
:10118C0002F5401293423FF473AF5F4A93423FF42F
:10119C006FAF5E4A93423FF46BAF5D4A93423FF4AC
:1011AC0067AF40F63C315748FFF7DCFB60E72A6835
:1011BC00002A0CDB4B498B4209D0C2F3130159BBFB
:1011CC00C2F3846201219140DA690A43DA612A6828
:1011DC0069682068FFF750FD2068866816F00406E1
:1011EC0000D00126836813F0080F00D106B32068E5
:1011FC00866816F0010640F0D682EA682968FFF787
:10120C0069FDEA68434B9A4200F083812B68002BFE
:10121C00C0F2508200203EE792FAA2F232B1B2FA4A
:10122C0082F202F01F0201219140CDE72022F8E763
:10123C00AA682968FFF738FD20682A4B984211D01C
:10124C00354B1B6803F07043B3F1805F3ED0C3682D
:10125C0013F0100F62D16B69C268C2F382025200A4
:10126C00934005E06B69C268C2F3C102520093401F
:10127C00296904295AD11B4B984200F0D380036E84
:10128C0003F0F8432A68B3EB826F00F033812268D5
:10129C00536E03F0F8432968B3EB816F00F02F8194
:1012AC002268936E03F0F8432968B3EB816F00F06A
:1012BC002B812268D36E03F0F8432968B3EB816F5E
:1012CC0095D1D36E23F00043D36690E76B69C26867
:1012DC00C2F3820252009340CAE700BF00200240D2
:1012EC000021024000600258020030040400600833
:1012FC000800900C1000C0100004002A00002143CC
:10130C000000844B549A0008002090360040C03AEC
:10131C000080F03E0000FF470010005C6B69C26863
:10132C00920802F0040252009340A1E72A68FFF7EA
:10133C006BFC2268954B9A4227D095F82130012BF3
:10134C005ED82368286995F82120012A5ED03246A0
:10135C008E498B4207D0603353F8201021F00041A6
:10136C000A4343F820202B7E012B52D82068296990
:10137C002B7E012B53D0026922F4F04201F01F03A3
:10138C0006FA03F31343036131E7EB69002B18BF33
:10139C00B3F1807F1CD195F82030012B1ED8236827
:1013AC002869E969794A93421ED02368296995F81E
:1013BC002020012A21D0754A93427FF418AF603364
:1013CC0053F8212022F00072324343F821200EE71B
:1013DC0040F681316E48FFF7C5FADCE740F6823102
:1013EC006B48FFF7BFFADAE7603353F8202022F09E
:1013FC008072114343F82010D7E74FF00076DAE7FC
:10140C0040F68A316248FFF7ADFA9AE74FF0004296
:10141C009EE740F68E315E48FFF7A4FAA6E74FF43C
:10142C000066A8E7036E026EC2F384622B68C3F3F6
:10143C00130181BBC3F384639A4234D02068436E9A
:10144C00426EC2F384622B68C3F3130181BBC3F3F6
:10145C0084639A4234D02068836E826EC2F38462B5
:10146C002B68C3F3130181BBC3F384639A4234D05A
:10147C002068C36EC26EC2F384622B68C3F313017F
:10148C0081BBC3F384639A427FF4B1AE0022032183
:10149C00FFF7DAFBABE693FAA3F313B1B3FA83F3DA
:1014AC00CAE72023C8E700221146FFF7CDFBC5E7AA
:1014BC0093FAA3F313B1B3FA83F3CAE72023C8E773
:1014CC0000220121FFF7C0FBC5E793FAA3F313B188
:1014DC00B3FA83F3CAE72023C8E700220221FFF7FF
:1014EC00B3FBC5E793FAA3F313B1B3FA83F3CAE7DB
:1014FC002023C8E7036E23F000430366C7E6536E50
:10150C0023F000435366CBE6936E23F000439366BF
:10151C00CFE620681F4B984209D01F4B98424DD004
:10152C001A4B984270D03146FFF700FC6EE62B68E0
:10153C001A4A934200F08C80194A934200F08A8038
:10154C00184A934200F08880174A934200F0868034
:10155C0002F186621032934200F08280134A934269
:10156C0000F0808002F1042202F5401293427BD0FD
:10157C0002F1866202F50062934277D00C4A9342E4
:10158C0076D00C4A9342CED10B4ECCE70060025879
:10159C00549A00080020024000210240020030044E
:1015AC00040060080800900C1000C0100004002A11
:1015BC00000021430000844B0000B84F2B687D4A8B
:1015CC00934257D07C4A934256D07C4A934255D092
:1015DC007B4A934254D002F186621032934251D02E
:1015EC00784A934250D002F1042202F54012934201
:1015FC004CD002F1866202F50062934248D0724AE6
:10160C00934290D1714E8EE72B686A4A934241D037
:10161C00694A934240D0694A93423FD0684A934208
:10162C003ED002F18662103293423BD0654A93421F
:10163C003AD002F1042202F54012934236D0644AA9
:10164C00934235D0634A93427FF46DAF624E6AE7A2
:10165C00012668E7614E66E7614E64E7614E62E71A
:10166C00614E60E7614E5EE7614E5CE7584E5AE7AB
:10167C00604E58E7012656E7584E54E7584E52E74D
:10168C00584E50E7584E4EE7584E4CE7584E4AE7E6
:10169C004F4E48E7012646E7504E44E7504E42E78E
:1016AC00504E40E7504E3EE7504E3CE7504E3AE726
:1016BC00484E38E7226850495048824218BF8A4247
:1016CC000CBF0121002118D14D4EB56805F0E07C0E
:1016DC00A9B14949886810F0010000D001204749A0
:1016EC00896811F0010100D0012101430CD0236E57
:1016FC0043F0200323660120CDE4424EE5E7424946
:10170C00896811F0010FF2D140498B4207D0404952
:10171C008B4226D03F498B4234D00020BBE415F4D9
:10172C00000FF4D1384B9A4201D00020B3E44CF4B2
:10173C000003B26822F0E0721343B360364B1B68AF
:10174C009B09364AA2FB03239B0901335B000193DF
:10175C0002E0019B013B0193019B002BF9D100207E
:10176C0099E415F0807FD5D1274B9A4201D0002007
:10177C0091E44CF08073B26822F0E0721343B360D2
:10178C00002088E415F4800F0FD11F4B9A4201D032
:10179C00002080E44CF48003B26822F0E072134322
:1017AC00B360002077E4002075E4002073E402208D
:1017BC0074E400BF02003004040060080800900CC0
:1017CC001000C0100004002A0000844B0000B84F29
:1017DC00002090360040C03A0080F03E40002019B6
:1017EC008000501D000180210002B0250008302E21
:1017FC0000106032000052470020024000210240DD
:10180C00002302400063025800600258000052C7D7
:10181C00000021C3000084CB0C000020632D3E058A
:10182C0010B5044603684349434A934218BF8B42A0
:10183C001FD1424B9B6803F44033003B18BF01237C
:10184C000BB302F03FFF6368B3F5003F05D0B3F56F
:10185C00403F16D0B3F5803F02D11B0CB0FBF3F028
:10186C00374B984249D82268936823F440739360AD
:10187C0010BD344B9B6803F44033003B18BF01236D
:10188C00DEE78008ECE74FF40020002104F0F2FAC8
:10189C006368B3F5101F2CD021D8B3F5E01F26D008
:1018AC0004D9B3F5001FDBD14009D9E7B3F5801F8C
:1018BC0010D009D8B3F5002F0CD0B3F5402F09D0B8
:1018CC00B3F5802F06D0CBE7B3F5A01F02D0B3F54C
:1018DC00C01FC5D19B0C5B00B0FBF3F0C0E7B3F5A8
:1018EC00201F08D0B3F5301FBAD1000AB8E70009A1
:1018FC00B6E78009B4E7C009B2E7134B984207D8A2
:10190C002268936823F4407343F480739360AFE7C9
:10191C000E4B984207D82268936823F4407343F423
:10192C0000739360A4E72268936843F44073936058
:10193C009EE700BF0020024000210240002302402D
:10194C0021BCBE000063025841787D0181F0FA028F
:10195C0030B583B000230193002800F00F830446B8
:10196C000368A449A44A8B4218BF934207D0A34AE8
:10197C00934204D040F2A711A148FEF7F3FF63682D
:10198C00B3F5803F18BFB3F5003F25D0B3F5403F0A
:10199C0022D00BB3B3F5802F1ED0B3F5002F1BD084
:1019AC00B3F5402F18D0B3F5801F15D0B3F5A01F99
:1019BC0012D0B3F5C01F0FD0B3F5E01F0CD0B3F5A8
:1019CC00001F09D0B3F5101F06D0B3F5201F03D0AC
:1019DC00B3F5301F40F0BF80A368002B18BF042B59
:1019EC000AD01C2B00F2BD804FF0112222FA03F317
:1019FC0013F0010F00F0B5802369012B00F2B780C2
:101A0C00637E012B00F2B980E36A002B18BFB3F59B
:101A1C00806F06D0B3F5006F03D0B3F5406F40F084
:101A2C00B280A36AB3F5806F18BFB3F5846F40D052
:101A3C00B3F5886F3DD0B3F58C6F3AD0B3F5906F9A
:101A4C0037D0B3F5946F34D0B3F5986F31D0B3F57C
:101A5C009C6F2ED0B3F5A06F2BD0B3F5A46F28D00C
:101A6C00B3F5A86F25D0B3F5AC6F22D0B3F5B06F3A
:101A7C001FD0B3F5B46F1CD0B3F5B86F19D0B3F554
:101A8C00BC6F16D0B3F5C06F13D0B3F5C46F10D0C4
:101A9C00B3F5C86F0DD0B3F5CC6F0AD0B3F5D06FDA
:101AAC0007D0B3F5D46F04D0B3F5D86F01D0002BA9
:101ABC006FD1236B002B18BF022B03D0012B01D04D
:101ACC00032B6CD16369042B18BF082B6DD1E36B0E
:101ADC00002B18BFB3F5805F6DD1237E012B70D81E
:101AEC0094F84430012B72D8236963B1E369013B4C
:101AFC000F2B72D894F82030012B74D894F8203026
:101B0C00012B00F0878094F82030012B00F08D80A1
:101B1C00236E002B00F0938023689A6812F0005F0C
:101B2C0003D09968374A0A409A6023689A6812F081
:101B3C00805F40F092809968334A0A4042F08052AC
:101B4C009A60324B1B689B09314AA2FB03239B0909
:101B5C00013301937EE04FF4D4712948FEF702FF64
:101B6C003AE740F2A9112648FEF7FCFE44E74FF491
:101B7C00D5712348FEF7F6FE42E740F2AB11204840
:101B8C00FEF7F0FE40E74FF4D6711D48FEF7EAFE73
:101B9C0047E740F2AD111A48FEF7E4FE89E74FF42F
:101BAC00D7711748FEF7DEFE8CE740F2AF111448F0
:101BBC00FEF7D8FE8BE74FF4D8711148FEF7D2FE32
:101BCC008BE740F2B1110E48FEF7CCFE88E74FF4DC
:101BDC00D9710B48FEF7C6FE86E74FF4DB71084857
:101BEC00FEF7C0FE86E740F2B7110548FEF7BAFED5
:101BFC0084E700BF00200240002102400060025830
:101C0C00549A0008C0FFFF5FC0FFFF6F0C0000205C
:101C1C00632D3E05636A013B072B7FF674AF40F2E0
:101C2C00BB117D48FEF79EFE6DE7637E012B7FF4B2
:101C3C006FAF4FF4E0717848FEF794FE68E72046EA
:101C4C00FEF7AEFB0023636684F85C3064E7019B0F
:101C5C00013B0193019B002BF9D123689A6812F088
:101C6C00805F40F09E80226E42F010022266626E0F
:101C7C0042F00102626601259A6812F0040200D05B
:101C8C000122216E11F0100F40F07081002A40F0FB
:101C9C006D81216E21F4817141F0020121669968F8
:101CAC0011F0010F1ED15D485D498B4218BF834274
:101CBC000CBF0123002376D1806810F0010000D006
:101CCC0001205749896811F0010100D0012101431D
:101CDC0008D1002B6DD053486368816821F47C11C6
:101CEC000B4383602168504B994264D0627EE36B56
:101CFC0043EA4233A268134394F8202043EA024398
:101D0C0094F82020012A6ED0A26A22B102F47872D3
:101D1C00E06A02431343444A914269D0C868434A7B
:101D2C0002401A43CA602268936813F0040300D07F
:101D3C000123916811F0080F23D113BB3A4B9A423F
:101D4C0063D0237E216B41EA8331D068384B03404A
:101D5C000B43D36094F84430012B6FD02268136985
:101D6C0023F0010313612268136923F07043216C83
:101D7C000B43136122682C4B9A4202D02046FFF78A
:101D8C004FFD2369012B00F0E8802268136B23F0D0
:101D9C000F031363236E23F0030343F00103236645
:101DAC00E9E0002568E72049896811F0010F99D115
:101DBC008FE7204890E7607EE36B43EA4033E068AE
:101DCC000343A068182804D01C2808D00C2808D17C
:101DDC000820034394F8202043EA024390E71020A4
:101DEC00F7E71046F5E7626A013A43EA42438BE7AC
:101DFC00C868114A02401A43CA602268136923F06A
:101E0C004063616B0B4313618DE7237E94F83810AC
:101E1C00490041EA833198E7549A000800200240B7
:101E2C0000210240002302400060025803C0F0FF72
:101E3C00FCBFFFFF006302580740F0FF2268504BC5
:101E4C009A424AD0A36C013BB3F5806F58D2E36C35
:101E5C00002B18BF202B17D0402B15D0602B13D084
:101E6C00802B11D0A02B0FD0C02B0DD0E02B0BD082
:101E7C00B3F5807F08D0B3F5907F05D0B3F5A07F84
:101E8C0002D0B3F5B07F41D1236D002B18BFB3F551
:101E9C00007F41D1636D40F20142012B18BF934288
:101EAC0040D1A36A0BB1E36A13B9236D002B3FD168
:101EBC002168334B994241D00A69324B1340A26CD2
:101ECC00501EE26C42EA0042206D0243606D0243F8
:101EDC00134343F001030B6145E7A36C002B18BFC0
:101EEC00042BB4D01C2B05D8274A22FA03F313F089
:101EFC00010FACD140F2B9212448FEF733FDA6E71F
:101F0C0040F2BD212148FEF72DFDA0E740F2C22191
:101F1C001E48FEF727FDB7E740F2C3211B48FEF72A
:101F2C0021FDB7E74FF431711848FEF71BFDB8E7F8
:101F3C0040F2CA211548FEF715FDB9E70A69144BA2
:101F4C001340A26CE06C0243206D0243606D0243AF
:101F5C00134343F001030B6105E721680B6B23F07E
:101F6C000F03E269013A13430B6313E7236E43F04B
:101F7C00100323660125284603B030BD0125FAE77E
:101F8C00006002581EF800FC00111111549A000850
:101F9C001FF800FC30B59DB004460D460268704B2E
:101FAC009A4204D040F662116E48FEF7DBFC2B68B7
:101FBC00052B18BF032B03D9072B6AD8062B6AD322
:101FCC002B6803B36B68002B18BFB3F5004F02D01E
:101FDC00B3F5404F65D1AB68002B18BFB3F5807FCC
:101FEC0011D0B3F5007F0ED0B3F5407F0BD0B3F515
:101FFC00806F08D0B3F5A06F05D0B3F5E06F02D0B9
:10200C00B3F5006F53D194F85C30012B00F0A6802F
:10201C00012384F85C300023189319932268504BE9
:10202C009A424AD000230093009B002B49D09B6816
:10203C0013F0040300D00123916811F0040F7FD139
:10204C00002B7DD14649484B9A4218BF8A4241D158
:10205C0003F500732A68002A4DD09A6822F4404296
:10206C0069680A439A6022683D483F498A4218BF12
:10207C00824231D1816811F0010100D001213A4A2C
:10208C00926812F0010200D001220A4329D00020EC
:10209C005BE0092B94D040F663113248FEF762FCEA
:1020AC008EE740F666112F48FEF75CFC93E740F68E
:1020BC0067112C48FEF756FCA5E703F580730093D7
:1020CC00B2E7236E43F020032366002384F85C30D0
:1020DC0001203DE0254BBDE7254A926812F0010F27
:1020EC0038D19968234A0A402968A86801430A43F1
:1020FC009A60002029E09A6822F440429A60226893
:10210C00174819498A4218BF82420ED1816811F0D2
:10211C00010100D00121144A926812F0010200D092
:10212C0001220A4306D000200FE0114A926812F0F7
:10213C00010F11D199680F4A0A409A60002004E0FF
:10214C00236E43F0200323660120002384F85C30C7
:10215C001DB030BD0020F8E70020F6E70220F7E7BD
:10216C00002002408C9A00080021024000630258B3
:10217C0000600258E0F0FFFFE8B110B504460268B9
:10218C000E4B9A4203D0D3210D48FEF7EBFB94F88B
:10219C00213053B1002060626060A060E06020617B
:1021AC006061012384F8213010BD84F82030204672
:1021BC00FEF788F9EEE70120704700BF00440248A3
:1021CC00C49A0008002807DB00F01F024009012315
:1021DC009340024A42F82030704700BF00E100E013
:1021EC00002804DB0901C9B2044B1954704700F0F4
:1021FC000F000901C9B2024B1954704700E400E00A
:10220C0014ED00E000B500F00700C0F1070CBCF1C4
:10221C00040F28BF4FF0040C031D062B0FD9C31E4F
:10222C004FF0FF3E0EFA0CF021EA000199400EFA35
:10223C0003FE22EA0E0241EA02005DF804FB0023D1
:10224C00EEE7000010B50446C31E042B0DD8094957
:10225C00CB6823F4E0631B041B0C240204F4E0643D
:10226C002343054A1A43CA6010BD91210348FEF767
:10227C0079FBECE700ED00E00000FA05FC9A0008A1
:10228C0070B506460C4615460F2A0ED80F2C11D8E1
:10229C000B4BD8682A462146C0F30220FFF7B2FF49
:1022AC0001463046FFF79CFF70BDA9210548FEF79B
:1022BC0059FBEBE7AA210348FEF754FBE8E700BF04
:1022CC0000ED00E0FC9A000810B5041E03DB20466C
:1022DC00FFF778FF10BDBD210148FEF743FBF6E781
:1022EC00FC9A00080138B0F1807F0BD24FF0E0234C
:1022FC005861054AF02182F82310002098610722CA
:10230C001A6170470120704700ED00E00023C360A4
:10231C0043610382202380F83330704700238361AC
:10232C0003628383202380F83230704710B5044653
:10233C00FFF7ECFF2046FFF7F1FF10BD38B5044660
:10234C00FEF730FC05462268136943F480331361B1
:10235C0023681B6913F4803F0BD0FEF723FC401B52
:10236C00B0F5FA7FF4D9636B43F08003636301200B
:10237C0001E00020606338BD70B310B504460268FC
:10238C00164B9A4204D040F285111548FEF7EAFA32
:10239C0094F8313093B1002363602046FFF7C6FFF9
:1023AC002046FFF7CBFF01280ED0002060632023CE
:1023BC0084F83130002384F8303010BD84F830308C
:1023CC002046FEF7A7F8E6E7636B43F01003636360
:1023DC00A02384F83130EDE701207047004002481B
:1023EC00349B00082DE9F04383B080460C466B4AC1
:1023FC006B4B904218BF984214BF4FF001094FF03D
:10240C00000924D003F50063C31A18BF012302F599
:10241C00006290421BD0D3B1624BC31A18BF012388
:10242C0002F50062904212D08BB15F4BC31A18BFF9
:10243C00012302F50062904209D043B15B4BC31AF1
:10244C0018BF012302F54062904200D0DBB923682B
:10245C009AB212B1B3F5803F03D3B4215448FEF7BE
:10246C0081FA6368112B18BF012B25D9B3F5041F12
:10247C0022D014D8B3F5881F1ED00CD8032B07D844
:10248C00022B19D214E0B3214948FEF76BFADEE7B0
:10249C00122B11D00CE0B3F5901F0DD008E0B3F562
:1024AC00441F09D0B3F5481F06D0B3F5081F03D05D
:1024BC00B5213F48FEF756FA0025BDE0E368032B33
:1024CC0017D8D8F80820690003238B4022EA0302AE
:1024DC00E3688B401343C8F80830D8F8042022EA8C
:1024EC0007026368C3F30013AB401343C8F804300E
:1024FC00B2E0C4212E48FEF735FAE2E7D6212C488B
:10250C00FEF730FAB1E0B9F1000F26D0294BB8EB49
:10251C00030318BF0123284A90451ED0EBB1214B71
:10252C00B8EB030318BF012302F50062904514D0E9
:10253C009BB11D4BB8EB030318BF012302F50062DE
:10254C0090450AD04BB1194BB8EB030318BF0123CC
:10255C0002F54062904500D09BB923690F2B15D82A
:10256C00EA08083258F8220005F0070189000F2309
:10257C008B4020EA030023698B40034348F8223048
:10258C0085E0E3210A48FEF7EDF9E6E7E421084887
:10259C00FEF7E8F9E4E7092311E000BF0000025858
:1025AC000004025800140258001C0258002802585B
:1025BC006C9B0008000C02580008025800238B404A
:1025CC0003430232634941F822304FF0B0431A689A
:1025DC00F34322EA0601606810F4801F01D046EA3A
:1025EC0002014FF0B0421160526803EA02016068C8
:1025FC0010F4001F01D046EA02014FF0B0425160C6
:10260C00D2F8842003EA0201606810F4003F01D084
:10261C0046EA02014FF0B042C2F88410D2F8802092
:10262C001340616811F4803F01D046EA02034FF079
:10263C00B042C2F880300135266836FA05F200F057
:10264C0086800127AF403E40F5D0636803F003035A
:10265C00013B012B7FF632AF636803F00303032BBE
:10266C000FD0A368022B3FF649AFD8F80C206900B5
:10267C0003238B4022EA0302A3688B401343C8F860
:10268C000C30636803F00303022B3FF43CAFD8F823
:10269C000020690003238B4022EA0302636803F0E5
:1026AC0003038B401343C8F80030636813F4403FB6
:1026BC00C1D0294BD3F8F42042F00202C3F8F42025
:1026CC00D3F8F43003F002030193019BAA08911C88
:1026DC00204B53F8210005F0030189000F238B4098
:1026EC0020EA03001D4B98453FF468AF03F5806367
:1026FC0098451ED003F5806398451CD003F5806384
:10270C0098451AD003F58063984518D003F580637B
:10271C00984516D003F58063984514D003F5806373
:10272C00984512D003F5006398453FF434AF0A2363
:10273C0045E7012343E7022341E703233FE7042353
:10274C003DE705233BE7062339E7072337E703B0CB
:10275C00BDE8F08300040058004402580000025801
:10276C0070B5054614460E4621B1012C08D86CB143
:10277C00AE6170BD4FF4D5710648FEF7F3F8F4E77F
:10278C0040F2AB110348FEF7EDF8F0E73604AE610A
:10279C00EFE700BF6C9B0008002800F0BF8010B56D
:1027AC00044603685E495F4A8B4218BF93420ED0C1
:1027BC0002F5806293420AD05B4A934207D05B4A8F
:1027CC00934204D04FF408715948FEF7CBF8A36834
:1027DC00B3F5806F66D2E368013B012B68D823699F
:1027EC00002B18BFB3F5004F68D16369FF2B6BD872
:1027FC00A369072B6ED8E369002B18BFB3F5002F24
:10280C006ED1236A002B18BFB3F5003F6ED194F83C
:10281C004130002B70D0242384F841302268136897
:10282C0023F0010313606368226823F07063136163
:10283C002268936823F400439360E368012B61D012
:10284C00A368226843F404439360E368022B5FD0CF
:10285C002268536823F40063536022685168354B37
:10286C000B4353602268D36823F40043D36023697D
:10287C0062691343A169226843EA0123D360E369C7
:10288C00216A22680B4313602268136843F001032A
:10289C00136000206064202384F84130206384F8A6
:1028AC00420010BD40F221212148FEF75BF892E76F
:1028BC0040F222211E48FEF755F890E740F2232102
:1028CC001B48FEF74FF890E74FF409711848FEF7D4
:1028DC0049F88DE740F225211548FEF743F88AE7C1
:1028EC0040F226211248FEF73DF88AE740F22721F4
:1028FC000F48FEF737F88AE784F840302046FDF79A
:10290C0029FF88E7A368226843F4004393609CE79F
:10291C002268536843F4006353609EE701207047BC
:10292C000054004000580040001C00580064004057
:10293C00A49B00080080000238B504460D460368CD
:10294C002449254A8B4218BF93420DD002F5806270
:10295C00934209D0214A934206D0214A934203D094
:10296C0063212048FDF7FEFF002D18BFB5F5805FF1
:10297C0027D194F84130202B28D194F84030012BEA
:10298C0026D0012384F84030242384F84130226877
:10299C00136823F0010313602268136823F4805337
:1029AC001360226813682B4313602268136843F08A
:1029BC0001031360202384F84130002084F8400088
:1029CC0038BD64210748FDF7CDFFD2E70220F7E7B9
:1029DC000220F5E70054004000580040001C00584D
:1029EC0000640040DC9B000838B504460D460368C3
:1029FC002249234A8B4218BF93420DD002F58062C4
:102A0C00934209D01F4A934206D01F4A934203D0E7
:102A1C0091211E48FDF7A6FF0F2D25D894F84130C3
:102A2C00202B26D194F84030012B24D0012384F89C
:102A3C004030242384F841302268136823F00103CA
:102A4C0013602268136823F4706343EA0523136050
:102A5C002268136843F001031360202384F841308B
:102A6C00002084F8400038BD92210848FDF77AFF19
:102A7C00D4E70220F7E70220F5E700BF005400403E
:102A8C0000580040001C005800640040DC9B00080B
:102A9C0082B0074BD3F8F42042F00202C3F8F420C2
:102AAC00D3F8F43003F002030193019B02B070479A
:102ABC00004402582DE9F04383B0D0F8008001EBBC
:102ACC00C10300EB83039A6A5B6A9A4254D80746A7
:102ADC000C469B1A01EBC10200EB8202D2699A42AE
:102AEC0000D31A4602F103094FEA990915E006F1E1
:102AFC0003094FEA9909BB7904EBC40507EB85057B
:102B0C00296A0093B3B2E2B2404605F01AF82B6A78
:102B1C0033442B62AB6A3344AB6208EB441303F5CA
:102B2C0010639B699BB24B4512D304EBC40307EBB8
:102B3C0083039A6A5B6A9A420AD24BB19B1A04EBE2
:102B4C00C40207EB8202D6699E42D0D31E46CEE762
:102B5C0004EBC40307EB83077A6ABB6A9A420FD86B
:102B6C0004F00F040122A240D8F8343823EA0203FF
:102B7C00C8F83438002000E0012003B0BDE8F08331
:102B8C000020FAE730B583B0002800F084800446BA
:102B9C000268424B9A4203D086214148FDF7E2FE7F
:102BAC0094F89534ABB1032384F89534206804F081
:102BBC007DFD237C8DF80030231D0ECB206804F0A6
:102BCC00ABFC60B1022384F895340125284603B090
:102BDC0030BD84F89434204605F0CEFEE3E70021A6
:102BEC00206805F0C4F90246B8B90346207998422A
:102BFC0018D903EBC30104EB8101012048750B7557
:102C0C00CB8500200876C861086203EBC30104EB96
:102C1C00810148620133DBB2E8E7022384F8953482
:102C2C000125D3E7904217D902EBC20304EB8303CF
:102C3C00002183F8551283F8542283F85812C3F8F4
:102C4C005C12C3F8601202EBC20304EB8303C3F8FB
:102C5C0064120132D2B2E5E7237C8DF80030231DDB
:102C6C000ECB206804F078FD054658B90023637438
:102C7C00012384F89534237B012B08D0206805F0C0
:102C8C0035F9A3E7022384F8953401259EE7204605
:102C9C0000F07AFDF2E7012598E700BF0000044040
:102CAC00149C0008036890F89424012A1AD010B5DB
:102CBC000446012280F89424DA6812F0400F02D006
:102CCC00427B012A09D0206804F0EAFC206805F058
:102CDC00FFF8002084F8940410BD9A6B42F4803203
:102CEC009A63F0E70220704770B504460D46006801
:102CFC00066C00EB411303F530639A68A179012946
:102D0C0011D038498E4256D03DB905EBC50304EBC2
:102D1C008303D3F86432002B5ED0E9B2204605F071
:102D2C007DFE002070BD12F0080F09D02E498E4296
:102D3C00F7D912F4004FF4D04FF400429A60F0E748
:102D4C0012F0200F02D020229A60EAE712F0280F2E
:102D5C00E7D125498E4206D912F4004F03D04FF427
:102D6C0000429A60DDE705EBC50204EB8202D2F863
:102D7C0074121B69C3F31203CB1AC2F868327DB903
:102D8C0005EBC50204EB8202D2F864226AB105EBB2
:102D9C00C50204EB8202D2F860121944C2F8601228
:102DAC00E9B2204605F03AFEBBE704F29C42012151
:102DBC0005F01CF9F4E712F4004F03D04FF4004275
:102DCC009A60AEE712F0200F01D020229A60E9B28F
:102DDC00204605F023FEA4E704F29C42002105F0F6
:102DEC0005F99AE70A31544F0A30544F38B5044666
:102DFC0003681D6C03EB4113D3F8081B0E4A954274
:102E0C0007D903F5306311F4004F02D04FF40042A0
:102E1C009A60204605F0FAFD074B9D4202D9A37932
:102E2C00012B01D0002038BD04F29C420121206806
:102E3C0005F0DCF8F6E700BF0A30544F90F89434F4
:102E4C00012B0CD010B50446012380F89434417446
:102E5C00006805F02DF8002084F8940410BD0220C1
:102E6C00704738B505468C4611F0800F2BD101F018
:102E7C000F0E0EEBCE04A40004F514740444211DB3
:102E8C000EEBCE0E00EB8E0E00208EF855020CF0E1
:102E9C000F0C81F800C0C2F30A028A600B714A78E9
:102EAC000AB1A1F81AC0022B1CD095F89434012B4E
:102EBC001BD0012385F89434286804F027FD0020EA
:102ECC0085F8940438BD01F00F0000EBC0018900B7
:102EDC0010312944043100EBC00005EB80000124C3
:102EEC004475D4E700234B71DFE70220EAE710B505
:102EFC0004460A4611F0800F20D101F00F0000EBC0
:102F0C00C0039B0003F514732344191D00EBC00090
:102F1C0004EB8000002380F8553202F00F020A7097
:102F2C0094F89434012B18D0012384F8943420683D
:102F3C0004F038FD002084F8940410BD01F00F005B
:102F4C0000EBC0039B0010332344191D00EBC000A1
:102F5C0004EB800001234375DFE70220EDE710B599
:102F6C00144601F00F0C0CEBCC01890001F5147127
:102F7C00014404310CEBCC0E00EB8E0ECEF860222B
:102F8C00CEF864320023CEF868328EF855328EF8C3
:102F9C0054C28279012A04D0006804F0E9FD0020B3
:102FAC0010BDCEF87042F7E701F00F0101EBC10143
:102FBC0000EB8100D0F86802704710B5144601F0A0
:102FCC000F0C0CEBCC0189001031014404310CEBDB
:102FDC00CC0E00EB8E0ECEF82020CEF82430002341
:102FEC00CEF8283001238EF815308EF814C0827973
:102FFC009A4204D0006804F0BBFD002010BDCEF84E
:10300C003040F7E738B501F00F050279AA4238D302
:10301C0004460B4611F0800F1FD101EBC101890052
:10302C0001F514710144043103EBC30300EB83037A
:10303C00002283F8552201238B700D7094F8943480
:10304C00012B20D0012384F89434206804F0D5FEA1
:10305C0085B1002084F8940438BD05EBC5018900C6
:10306C0010310144043105EBC50300EB830301224D
:10307C005A75E0E704F29C42A179206804F0B6FF8F
:10308C00E7E70120E8E70220E6E701F00F03027909
:10309C009A4230D310B5044611F0800F1ED103EBC9
:1030AC00C301890001F514710144043103EBC3021F
:1030BC0000EB8202002082F8550200228A700B700D
:1030CC0094F89434012B18D0012384F8943420689C
:1030DC0004F0C0FE002084F8940410BD03EBC3017F
:1030EC00890010310144043103EBC30200EB82026E
:1030FC0001205075E1E7012070470220EDE708B58B
:10310C0011F0800F0CD101F00F0101EBC10189000E
:10311C0001F5147101440431006804F0B3FC08BDDE
:10312C0001F00F0101EBC1018900103101440431A0
:10313C00F2E72DE9F04F83B004460568284604F009
:10314C0012FF10B103B0BDE8F08F0646206804F002
:10315C00DBFE0028F6D005F50067BB68C3F30D2332
:10316C00C4F8D434206804F0CFFE10F0020F04D061
:10317C002268536903F002035361206804F0C4FE13
:10318C0010F0100F16D02268936923F0100393618E
:10319C00D5F8208008F00F0908F4F013B3F5802F50
:1031AC006AD0B3F5402F00F08D802268936943F00C
:1031BC0010039361206804F0A7FE10F4002F40F078
:1031CC009380206804F0A0FE10F4802F40F0FC8067
:1031DC00206804F099FE0028C0F27D81206804F07C
:1031EC0093FE10F4006F09D0BB6813F0010F40F090
:1031FC008A812268536903F400635361206804F0E8
:10320C0083FE10F0006F15D02268536903F0006341
:10321C00536194F8CC34002B40F07981012184F86F
:10322C00CC1423685B6DC3F38303C4F8D0342046FD
:10323C0000F0BEFA206804F067FE10F4805F40F0E6
:10324C006A81206804F060FE10F4005F40F0B681E3
:10325C00206804F059FE10F0080F40F0C781206878
:10326C0004F052FE10F0800F00F0DA81AB6923F00D
:10327C008003AB610126C3E147F6F07318EA030F34
:10328C0093D04FEA181A4FEAC903019309EBC90B03
:10329C0004EB8B0BC8F30A12DBF86012284604F01F
:1032AC0089FDDBF86032CAF30A0A5344CBF860326A
:1032BC00DBF86832019A4A4404EB82025344C2F8A8
:1032CC00683272E7082204F29C41284604F072FD31
:1032DC0009EBC90304EB8303D3F86822C8F30A187B
:1032EC004244C3F8682260E7206804F011FE80466F
:1032FC00B14635E005EB49130122C3F8082B4946CA
:10330C002046FFF7F1FC3CE005EB49130822C3F81B
:10331C00082B49462046FFF769FD35E009EBC90348
:10332C0004EB830393F85732012B41D005EB49137F
:10333C000222C3F8082B1AF0200F04D005EB491316
:10334C002022C3F8082B1AF4005F05D005EB4913B3
:10335C004FF40052C3F8082B09F101094FEA580841
:10336C00B8F1000F3FF42DAF18F0010FF4D05FFA55
:10337C0089FB5946206804F0DBFD824610F0010FF2
:10338C00B8D11AF0080FBFD11AF0100F04D005EB0A
:10339C0049131022C3F8082B1AF0020FCBD06B691B
:1033AC0013F0800FBAD07B6843F480637B60B5E781
:1033BC0009EBC90304EB8303002283F85722594617
:1033CC00204605F07BFBB1E7206804F0A9FD8046A0
:1033DC00B14625E05946204605F02CFB1AF0080FA3
:1033EC0004D005EB49130822C3F808291AF0100F72
:1033FC0004D005EB49131022C3F808291AF0400F2A
:10340C0004D005EB49134022C3F808291AF0020F27
:10341C0040D11AF0800F59D109F101094FEA58082F
:10342C00B8F1000F3FF4D4AE18F0010FF4D05FFAEE
:10343C0089FB5946206804F084FD824610F0010F88
:10344C00CCD009F00F02012101FA02F27B6B23EAC6
:10345C0002037B6305EB4913C3F80819A3798B426C
:10346C00B8D109EBC90304EB83031A6AD9690A447E
:10347C001A62B9F1000FADD109EBC90304EB830358
:10348C005B6A002BA6D104F29C420121206804F057
:10349C00ADFD9FE74946284604F00EF909EBC90338
:1034AC0004EB8303DB7D012B05D005EB49130222D2
:1034BC00C3F80829ADE709EBC90304EB8303002229
:1034CC00DA755946204605F0FFFAEEE749462046E4
:1034DC00FFF7F0FAA0E77B6823F001037B6094F818
:1034EC00CC34012B08D0204605F0E2FA226853694F
:1034FC0003F00043536171E6002184F8CC1420469C
:10350C0000F056F9F2E7204605F0BAFA71E62046CB
:10351C0005F0B6FA8EE67B6823F001037B60102180
:10352C00206804F0C9F81AE005EB46134FF67F311A
:10353C00C3F80819D3F8002922F40012C3F80029A3
:10354C00C3F8081BD3F8002B22F40012C3F8002B8D
:10355C00D3F8002B42F00062C3F8002B013623791C
:10356C00B342E1D8FB6943F00113FB61E37BDBB1B0
:10357C00D7F8843043F00B03C7F884307B6C43F0EE
:10358C000B037B64D5F8003823F4FE63C5F80038D0
:10359C0004F29C42A179206804F028FD226853694A
:1035AC0003F4805353614CE67A6942F22B031343C4
:1035BC007B613B6943F00B033B61E3E7206804F05C
:1035CC0007FD206804F090F9E071266801F07AF8A4
:1035DC000146E279304603F0F1FF204605F03BFA54
:1035EC002268536903F40053536131E6204605F019
:1035FC002CFA2268536903F0080353612FE6013655
:10360C002379B3420CD906EBC60304EB830393F87E
:10361C005732012BF3D1F1B22046FFF770FDEEE7E4
:10362C00206804F071FC10F4801F25D1206804F090
:10363C006BFC10F4001F58D0012326E001362379CF
:10364C00B3421BD905EB4613D3F8002906EBC6038E
:10365C0004EB83031B7E012BF0D1002AEEDA06EB80
:10366C00C60304EB83030122DA7566F07F01C9B24D
:10367C002046FFF744FDE1E70126E0E722685369A5
:10368C0003F480135361D1E7013322799A4227D98D
:10369C0005EB4312D2F8001B03EBC30204EB8202CE
:1036AC0092F85822012AEFD10029EDDAD4F8D4246B
:1036BC0082EA114212F0010FE6D103EBC30204EBD4
:1036CC008202012182F85712AA6942F08002AA6193
:1036DC006A6912F0800FD7D17B6843F400737B606A
:1036EC002268536903F400135361206804F00CFC46
:1036FC0010F0804F10D1206804F006FC10F0040F7D
:10370C003FF420AD23685D6815F0040F0DD12268DD
:10371C0053682B43536015E5204605F0DBF922680E
:10372C00536903F080435361E5E7204605F0D8F96F
:10373C00EDE710B40468606A31B940EA0240A06257
:10374C0000205DF8044B70478C46A36A00EB1340D5
:10375C00002308E003F1400104EB8101496800EB10
:10376C0011400133DBB20CF1FF318B42F2D340EA52
:10377C0002400CF13F0104EB81046060E0E7036858
:10378C005962002070470000034602680121C0F80E
:10379C00D814002083F8CC04936943F00063936140
:1037AC00516D024B0B435365704700BF0300001073
:1037BC007047000038B50446022818BF042816D0FC
:1037CC00B0F1260318BF0123162810D07BB1B0F13D
:1037DC002E0318BF01231E2809D043B1B0F12D03CD
:1037EC0018BF01231D2802D00BB101280DD1264B87
:1037FC00DB6803F00703062B0DD0234BDB6803F0CB
:10380C003F03A3423DD0012038BD4FF4A1711F48A6
:10381C00FDF7A8F8EBE71C4AD36823F03F032343DA
:10382C00D360FDF7BFF90546174B5B6813F4005FD7
:10383C0007D1FDF7B7F9401BB0F57A7FF4D9012019
:10384C00E2E72E2C18BF1E2C08D02D2C14BF002301
:10385C0001231D2C02D00BB90020D5E7FDF7A2F9EE
:10386C000446094BDB6803F01103112B07D0FDF75D
:10387C0099F9001BB0F57A7FF3D90120C4E7002039
:10388C00C2E70020C0E700BF004802584C9C00086B
:10389C00024AD36843F08073D360704700480258E3
:1038AC00002800F0AF8338B50446036813B113F059
:1038BC003F0F25D0236813F0010F3AD06368002B1B
:1038CC0018BFB3F5803F02D0B3F5A02F1ED1964A96
:1038DC00136903F03803926A102B21D0182B1BD0DC
:1038EC006368B3F5803F57D0002B6BD18E4B1A68B1
:1038FC0022F480321A601A6822F480221A6050E096
:10390C0040F2A1118948FDF72DF8D3E74FF4D3719C
:10391C008648FDF727F8DAE702F00302022ADFD126
:10392C00814B1B6813F4003F03D06368002B00F03D
:10393C006B83236813F0020F00F0A080E368092B5F
:10394C0018BF012B03D9112B01D0192B60D123697E
:10395C007F2B63D8744A1369926A13F0380366D0CC
:10396C00182B61D0E368002B00F0BD806E490A680B
:10397C0022F0190213430B60FDF714F905466A4B4C
:10398C001B6813F0040F40F0A580FDF70BF9401BEA
:10399C000228F4D9032068E0634A136843F48033A7
:1039AC00136063682BB3FDF7FDF805465E4B1B688F
:1039BC0013F4003FBDD1FDF7F5F8401B6428F5D991
:1039CC00032052E0B3F5A02F09D0574B1A6822F40C
:1039DC0080321A601A6822F480221A60E1E7524B96
:1039EC001A6842F480221A601A6842F480321A6013
:1039FC00D7E7FDF7D7F805464B4B1B6813F4003F90
:103A0C0097D0FDF7CFF8401B6428F5D903202CE0A4
:103A1C004FF4ED714548FCF7A5FF98E740F2DB1138
:103A2C004248FCF79FFF95E712F0030F9AD13E4BEB
:103A3C001B6813F0040F03D0E368002B00F0E68240
:103A4C00394A136823F01903E1680B431360FDF73F
:103A5C00A9F80546344B1B6813F0040F06D1FDF78B
:103A6C00A1F8401B0228F5D9032038BD2E4A536813
:103A7C0023F0FE43216943EA01635360236813F08A
:103A8C00100F6AD0E369002B18BF802B3FD1236A3B
:103A9C003F2B42D8244A136903F03803926A082B4F
:103AAC004AD0182B44D0E369002B7DD01E4A1368F2
:103ABC0043F080031360FDF775F805461A4B1B683D
:103ACC0013F4807F67D1FDF76DF8401B0228F5D900
:103ADC000320CAE7144A536823F0FE43216943EAE2
:103AEC0001635360CAE7104A136823F001031360A3
:103AFC00FDF758F805460C4B1B6813F0040FBDD0AE
:103B0C00FDF750F8401B0228F5D90320ADE740F231
:103B1C002B210648FCF726FFB9E74FF40B7103483D
:103B2C00FCF720FFB6E700BF00440258849C000855
:103B3C0002F00302012AB6D1864B1B6813F4807F76
:103B4C0003D0E369802B40F06382824AD36823F070
:103B5C007C53216A43EA0163D360236813F0080F96
:103B6C0050D06369012B33D86369002B36D0794A66
:103B7C00536F43F001035367FDF714F80546754B7B
:103B8C005B6F13F0020F3DD1FDF70CF8401B0228C0
:103B9C00F5D9032069E76F4AD36823F07C53216A77
:103BAC0043EA0163D360D8E76A4A136823F08003C1
:103BBC001360FCF7F7FF0546664B1B6813F4807F18
:103BCC00CBD0FCF7EFFF401B0228F5D903204CE7C4
:103BDC0040F26D216048FCF7C5FEC5E75D4A536FA6
:103BEC0023F001035367FCF7DDFF0546594B5B6F70
:103BFC0013F0020F06D0FCF7D5FF401B0228F5D9B5
:103C0C00032032E7236813F0200F32D0A369012B75
:103C1C0015D8A369CBB14F4A136843F48053136092
:103C2C00FCF7C0FF05464B4B1B6813F4005F20D11B
:103C3C00FCF7B8FF401B0228F5D9032015E74FF419
:103C4C0026714548FCF78EFEE3E7424A136823F4DD
:103C5C0080531360FCF7A6FF05463E4B1B6813F41C
:103C6C00005F06D0FCF79EFF401B0228F5D903200D
:103C7C00FBE6236813F0040F72D0A368052B18BF62
:103C8C00012B13D8354A136843F480731360FCF787
:103C9C0089FF0546314B1B6813F4807F0CD1FCF770
:103CAC0081FF401B6428F5D90320DEE640F2C221D7
:103CBC002948FCF757FEE5E7A368012B0AD00BBB9C
:103CCC00244B1A6F22F001021A671A6F22F00402B9
:103CDC001A6704E01F4A136F43F001031367A368CC
:103CEC0033B3FCF75FFF05461A4B1B6F13F0020F43
:103CFC0036D1FCF757FF401B41F288339842F3D979
:103D0C000320B2E6052B09D0124B1A6F22F00102E8
:103D1C001A671A6F22F004021A67E0E70D4B1A6F4C
:103D2C0042F004021A671A6F42F001021A67D6E7D2
:103D3C00FCF738FF0546074B1B6F13F0020F0FD033
:103D4C00FCF730FF401B41F288339842F3D9032033
:103D5C008BE600BF00440258849C000800480258BF
:103D6C00636A022B4FD8636A002B00F05981A94A71
:103D7C00126902F03802182A00F0F380022B40F08E
:103D8C00DA80A36A032B18BF012B01D9022B40D177
:103D9C00236C002B18BF042B03D0082B01D00C2B49
:103DAC003DD1636C002B18BF022B3ED1E36A013B63
:103DBC003E2B40D8236B043BB3F5FE7F41D8636B9D
:103DCC00013B7F2B43D8A36B013B7F2B45D8E36B87
:103DDC00013B7F2B47D8A36CB3F5005F49D28D4ACA
:103DEC00136823F080731360FCF7DCFE0546894BE7
:103DFC001B6813F0007F42D0FCF7D4FE401B022856
:103E0C00F5D9032031E64FF43D718348FCF7AAFD48
:103E1C00A9E740F2FD218048FCF7A4FDB8E740F289
:103E2C00FE217D48FCF79EFDBBE740F2FF217A485E
:103E3C00FCF798FDBAE74FF440717748FCF792FD18
:103E4C00B8E740F201317448FCF78CFDB7E740F25B
:103E5C0002317148FCF786FDB5E740F203316E483C
:103E6C00FCF780FDB3E74FF441716B48FCF77AFD2A
:103E7C00B1E740F205316848FCF774FDAFE7654BDC
:103E8C00996A664A0A40A16AE06A41EA00110A434B
:103E9C009A62226B013AC2F30802616B0139490242
:103EAC0089B20A43A16B0139090401F4FE010A43EA
:103EBC00E16B0139090601F0FE410A431A63DA6A23
:103ECC0022F00102DA625A6B6FF3CF02A16C42EA64
:103EDC00C1025A63DA6A22F00C02216C0A43DA62DC
:103EEC00DA6A22F00202616C0A43DA62DA6A42F49C
:103EFC008032DA62DA6A42F40032DA62DA6A42F466
:103F0C008022DA62DA6A42F00102DA621A6842F05E
:103F1C0080721A60FCF746FE04463E4B1B6813F099
:103F2C00007F06D1FCF73EFE001B0228F5D90320CA
:103F3C009BE5002099E5374A136823F080731360E2
:103F4C00FCF730FE0446334B1B6813F0007F06D0A1
:103F5C00FCF728FE001B0228F5D9032085E500207C
:103F6C0083E52C4A916A106B012B5BD001F00303A3
:103F7C00A26A934258D1C1F30511E36A994255D113
:103F8C00C0F30802236B013B9A4251D1C0F3462285
:103F9C00636B013B9A424DD1C0F30642A36B013BCC
:103FAC009A4249D1C0F30660E36B013B984245D17C
:103FBC00184B5B6BC3F3CC03A26C9A4240D0B2F5A6
:103FCC00005F19D2134AD36A23F00103D362FCF7C2
:103FDC00E9FD0546FCF7E6FDA842FBD00D4A536B04
:103FEC006FF3CF03A16C43EAC1035363D36A43F06D
:103FFC000103D362002038E54FF45B710648FCF7EF
:10400C00B1FCDFE70120704701202EE501202CE5F3
:10401C0001202AE500440258849C00080CFCFFFF98
:10402C00002022E5012020E501201EE501201CE5F1
:10403C0001201AE5012018E5012016E5012014E500
:10404C00002012E5754B1B6903F03803102B00F0B0
:10405C00DE80182B0FD0002B40F0DB806F4B1B68E1
:10406C0013F0200F00F0D7806C4B1B68C3F3C10317
:10407C006B48D840704710B4684B9A6A02F0030240
:10408C009C6AC4F30510D96A01F001015B6BC3F3A0
:10409C00CC0301FB03F307EE903AF8EE677A14F4C5
:1040AC007C7F77D0012A4AD0022A76D0002A40F0B1
:1040BC0091805A4B1B6813F0200F23D057490A6884
:1040CC00C2F3C102564BD34007EE103AF8EE476AE2
:1040DC0007EE100AB8EE476A86EE867A0B6BC3F3CE
:1040EC00080306EE903AF8EE666A9FED4E6A67EEAC
:1040FC00867A76EEA77AF7EE006A77EEA67A27EE46
:10410C00277A38E007EE100AF8EE476A9FED466A08
:10411C0086EE267A414B1B6BC3F3080306EE903AEE
:10412C00F8EE666A9FED3F6A67EE867A76EEA77ABE
:10413C00F7EE006A77EEA67A27EE277A1BE007EEF9
:10414C00100AF8EE476A9FED396A86EE267A334BF1
:10415C001B6BC3F3080306EE903AF8EE666A9FED0C
:10416C00316A67EE867A76EEA77AF7EE006A77EE1A
:10417C00A67A27EE277A294B1B6BC3F34623013310
:10418C0007EE903AF8EE677AC7EE276AFCEEE67A0D
:10419C0017EE900A5DF8044B704707EE100AF8EE24
:1041AC00476A9FED236A86EE267A1C4B1B6BC3F382
:1041BC00080306EE903AF8EE666A9FED1A6A67EE0F
:1041CC00867A76EEA77AF7EE006A77EEA67A27EE75
:1041DC00277AD0E707EE100AF8EE476A9FED136ACC
:1041EC0086EE267A0D4B1B6BC3F3080306EE903A52
:1041FC00F8EE666A9FED0B6A67EE867A76EEA77A22
:10420C00F7EE006A77EEA67A27EE277AB3E709482D
:10421C007047094870470248704700BF0044025875
:10422C000090D003000000390024744C0024744A20
:10423C00001BB74B00366E0100093D00002800F052
:10424C002A8270B50D4604460368013B3E2B00F2F2
:10425C00DD800F2D00F2E0809E4B1B6803F00F03F6
:10426C00AB420BD29B4A136823F00F032B43136012
:10427C00136803F00F03AB4240F00F82236813F076
:10428C00040F18D02269944B9B6903F070039A4277
:10429C0011D9002A18BF402A06D0502A04D0602A0F
:1042AC0002D0702A40F0BE808B4A936923F07003D1
:1042BC0021690B439361236813F0080F18D06269CE
:1042CC00854BDB6903F070039A4211D9002A18BFA1
:1042DC00402A06D0502A04D0602A02D0702A40F01E
:1042EC00A7807D4AD36923F0700361690B43D361C6
:1042FC00236813F0100F1CD0A269774BDB6903F411
:10430C00E0639A4215D9002A18BFB2F5806F09D024
:10431C00B2F5A06F06D0B2F5C06F03D0B2F5E06F66
:10432C0040F08C806C4AD36923F4E063A1690B43A1
:10433C00D361236813F0200F17D0E269664B1B6A18
:10434C0003F070039A4210D9002A18BF402A05D0F6
:10435C00502A03D0602A01D0702A75D15E4A136AA4
:10436C0023F07003E1690B431362236813F0020F0F
:10437C0014D0E268584B9B6903F00F039A420DD995
:10438C00002A18BF082A02D0093A062A62D8524AD3
:10439C00936923F00F03E1680B439361236813F0D7
:1043AC00010F00F09D80A368002B18BFB3F5006FC0
:1043BC0014D0B3F5106F11D0B3F5206F0ED0B3F548
:1043CC00306F0BD0B3F5406F08D0B3F5506F05D0FC
:1043DC00B3F5606F02D0B3F5706F41D16368032BF6
:1043EC0044D83D4A936923F47063A1680B439361ED
:1043FC006368022B40D0032B5DD0012B62D0364A70
:10440C00126812F0040F3CD1012025E140F2A731D3
:10441C003248FCF7A7FA1CE74FF46A712F48FCF7F7
:10442C00A1FA19E74FF471712C48FCF79BFA3BE7A2
:10443C0040F2D6312948FCF795FA52E740F2E731C1
:10444C002648FCF78FFA6DE740F2F9312348FCF768
:10445C0089FA83E740F20C412048FCF783FA96E78F
:10446C0040F21C411D48FCF77DFAB7E740F21D41B4
:10447C001A48FCF777FAB4E7126812F4003F00F020
:10448C000E8115490A6922F0070213430B61FCF7F0
:10449C0089FB0646104B1B6903F038036268B3EBCB
:1044AC00C20F1DD0FCF77EFB801B41F28833984273
:1044BC00F0D90320D0E0084A126812F0007FE0D156
:1044CC000120C9E0044A126812F4807FD9D101207E
:1044DC00C2E000BF0020005200440258849C000837
:1044EC00236813F0020F15D0E2686F4B9B6903F041
:1044FC000F039A420ED2002A18BF082A03D0093A99
:10450C00062A00F2AA80684A936923F00F03E16837
:10451C000B439361654B1B6803F00F03AB420BD944
:10452C00624A136823F00F032B431360136803F0E4
:10453C000F03AB4240F0B580236813F0040F18D082
:10454C002269594B9B6903F070039A4211D2002ADD
:10455C0018BF402A06D0502A04D0602A02D0702AF4
:10456C0040F08180504A936923F0700321690B431A
:10457C009361236813F0080F17D062694A4BDB690B
:10458C0003F070039A4210D2002A18BF402A05D0BB
:10459C00502A03D0602A01D0702A6AD1424AD369CA
:1045AC0023F0700361690B43D361236813F0100F80
:1045BC001BD0A2693C4BDB6903F4E0639A4214D232
:1045CC00002A18BFB2F5806F08D0B2F5A06F05D0E5
:1045DC00B2F5C06F02D0B2F5E06F50D1324AD36958
:1045EC0023F4E063A1690B43D361236813F0200F1C
:1045FC0017D0E2692C4B1B6A03F070039A4210D25D
:10460C00002A18BF402A05D0502A03D0602A01D0B6
:10461C00702A3AD1244A136A23F07003E1690B43E0
:10462C001362FFF70FFD20498B69C3F30323204A64
:10463C00D35C03F01F03D8408B6903F00F03D35CEA
:10464C0003F01F0320FA03F31A4A13601A4B186085
:10465C001A4B1868FCF744FA70BD40F25E411848DA
:10466C00FCF780F94FE740F27F411548FCF77AF9E7
:10467C0078E740F291411248FCF774F98EE740F26A
:10468C00A3410F48FCF76EF9A8E740F2B5410C487E
:10469C00FCF768F9BEE7012070470120DCE7012038
:1046AC00DAE70120D8E700BF00440258002000528E
:1046BC00E49D0008080000200C00002004000020ED
:1046CC00849C000808B5FFF7BDFC0B4A9369C3F343
:1046DC0003230A49CB5C03F01F0320FA03F392690E
:1046EC0002F00F02885C00F01F0023FA00F0044A6D
:1046FC001060044A136008BD00440258E49D000891
:10470C00080000200C00002008B5FFF7DBFF054B6C
:10471C00DB69C3F30213044AD35C03F01F03D840D4
:10472C0008BD00BF00440258E49D000870B5044663
:10473C000E460368013B3E2B3DD86368043BB3F542
:10474C00FE7F3ED8A368013B7F2B40D82369013BF9
:10475C007F2B42D8E368013B7F2B44D86369002B45
:10476C0018BF402B03D0802B01D0C02B41D1A369A3
:10477C00002B18BF202B42D1E369B3F5005F44D264
:10478C00574B9B6A03F00303032B00F0A780544A9A
:10479C00136823F080631360FCF704FA0546504B52
:1047AC001B6813F0006F36D0FCF7FCF9431B022B8F
:1047BC00F5D9032093E040F672614A48FCF7D2F831
:1047CC00BBE740F673614748FCF7CCF8BAE740F614
:1047DC0074614448FCF7C6F8B8E740F67561414887
:1047EC00FCF7C0F8B6E740F676613E48FCF7BAF83D
:1047FC00B4E740F677613B48FCF7B4F8B7E740F60E
:10480C0078613848FCF7AEF8B6E740F67961354880
:10481C00FCF7A8F8B4E7324B9A6A22F47C32216890
:10482C0042EA01329A626268013AC2F30802A16854
:10483C000139490289B20A43E1680139090401F4DA
:10484C00FE010A4321690139090601F0FE410A43C0
:10485C009A63DA6A22F0C00261690A43DA62DA6AA0
:10486C0022F02002A1690A43DA62DA6A22F010020D
:10487C00DA62DA6B6FF3CF02E16942EAC102DA6302
:10488C00DA6A42F01002DA62C6B91A46DB6A43F4FD
:10489C000023D362124A136843F080631360FCF761
:1048AC0081F904460E4B1B6813F0006F14D1FCF712
:1048BC0079F9001B0228F5D9032010E0012E05D050
:1048CC00074AD36A43F40013D362E3E7044AD36A7A
:1048DC0043F48013D362DDE7002000E0012070BDBB
:1048EC0000440258BC9C000870B504460E46036890
:1048FC00013B3E2B41D86368043BB3F5FE7F42D8A5
:10490C00A368013B7F2B44D82369013B7F2B46D8FE
:10491C00E368013B7F2B48D86369002B18BFB3F5C4
:10492C00806F05D0B3F5006F02D0B3F5406F42D164
:10493C00A369002B18BFB3F5007F42D1E369B3F52F
:10494C00005F44D2574B9B6A03F00303032B00F028
:10495C00A780544A136823F080531360FCF722F9A4
:10496C000546504B1B6813F0005F36D0FCF71AF964
:10497C00431B022BF5D9032093E040F6DA614A4839
:10498C00FBF7F0FFB7E740F6DB614748FBF7EAFFC0
:10499C00B6E740F6DC614448FBF7E4FFB4E740F6C9
:1049AC00DD614148FBF7DEFFB2E740F6DE613E48D1
:1049BC00FBF7D8FFB0E740F6DF613B48FBF7D2FFCF
:1049CC00B6E74FF46E613848FBF7CCFFB6E740F61C
:1049DC00E1613548FBF7C6FFB4E7324B9A6A22F027
:1049EC007C72216842EA01529A626268013AC2F30F
:1049FC000802A1680139490289B20A43E168013908
:104A0C00090401F4FE010A4321690139090601F088
:104A1C00FE410A431A64DA6A22F4406261690A436D
:104A2C00DA62DA6A22F40072A1690A43DA62DA6A9B
:104A3C0022F48072DA625A6C6FF3CF02E16942EAB7
:104A4C00C1025A64DA6A42F48072DA62C6B91A4652
:104A5C00DB6A43F48003D362124A136843F0805339
:104A6C001360FCF79FF804460E4B1B6813F0005FB5
:104A7C0014D1FCF797F8001B0228F5D9032010E09D
:104A8C00012E05D0074AD36A43F08073D362E3E763
:104A9C00044AD36A43F40003D362DDE7002000E04C
:104AAC00012070BD00440258BC9C0008F8B50446B7
:104ABC00036813F0006F2FD0436EB3F5001F25D0A1
:104ACC0015D8E3B1B3F5801F0ED102210830FFF7E2
:104ADC002DFE05467DBB904A136D23F44013616E89
:104AEC000B431365002619E00126354616E0B3F595
:104AFC00401F01D10025EEE7012635460EE0864A1F
:104B0C00D36A43F40033D3620025E4E70221283052
:104B1C00FFF7EAFE0546DDE700263546236813F469
:104B2C00807F19D0A36D042B00F29880DFE803F08E
:104B3C0005888F0A0A002E46F0E7774AD36A43F4B9
:104B4C000033D362002D40F08C80734A136D23F038
:104B5C000703A16D0B431365236813F4806F1DD0FD
:104B6C00D4F8A430B3F5800F00F092807ED8002BDF
:104B7C0000F08880B3F5001F75D1002104F1080006
:104B8C00FFF7D4FD0546002D40F08980624A936DF5
:104B9C0023F46003D4F8A4100B439365236813F437
:104BAC00006F1DD0D4F8A830B3F1007F00F08E80D8
:104BBC007AD8002B00F08480B3F1807F71D1002172
:104BCC0004F10800FFF7B2FD0546002D40F085808A
:104BDC00514A936D23F0E063D4F8A8100B4393650E
:104BEC00236813F0007F14D0E36C202B7FD079D88E
:104BFC0033B1102B73D1484AD36A43F40033D362D8
:104C0C00002D7BD1444AD36C23F03003E16C0B4371
:104C1C00D364236813F4805F00F08E80E36DB3F5EA
:104C2C00005F00F0D3806ED8002B77D0B3F5805F97
:104C3C0066D1002104F10800FFF778FD054672E00B
:104C4C00002104F10800FFF771FD05467AE7002109
:104C5C0004F12800FFF748FE054673E701263546A8
:104C6C007AE72E4678E70126354697E7B3F5000F2D
:104C7C0089D0B3F5200F86D0B3F5C00F83D00126B1
:104C8C0035468BE7244AD36A43F40033D3627AE780
:104C9C00002104F12800FFF727FE054673E72E4696
:104CAC007CE7012635469BE7B3F1806F8DD0B3F1DD
:104CBC00A06F8AD0B3F1407F87D0012635468FE7AD
:104CCC00154AD36A43F40033D3627EE7002104F122
:104CDC002800FFF709FE054677E72E4680E70126F8
:104CEC00354696E7302B8BD00126354691E70221CD
:104CFC0004F10800FFF71AFD054681E72E4688E708
:104D0C000126354618E0B3F5405F0CD0B3F5804F63
:104D1C0009D0012635460FE0004402585A4AD36A9E
:104D2C0043F40033D362002D57D1574A136D23F44B
:104D3C00E043E16D0B431365236813F4005F17D058
:104D4C00236EB3F5003F59D04CD843B1B3F5803F37
:104D5C0045D1012104F10800FFF7E8FC0546002DC0
:104D6C0053D1494A136D23F4E023216E0B43136591
:104D7C00236813F4804F19D0D4F8AC30B3F1005F32
:104D8C0054D047D843B1B3F1805F40D1012104F135
:104D9C000800FFF7CBFC0546002D4ED13A4A936D27
:104DAC0023F0E043D4F8AC100B439365236813F461
:104DBC00004F58D0E36EB3F1805F40D0B3F1005F89
:104DCC0043D0002B47D0012635464CE0002104F19E
:104DDC002800FFF789FD0546A5E72E46ACE701261E
:104DEC003546C5E7B3F5802FB9D0B3F5A02FB6D0B3
:104DFC00B3F5403FB3D001263546B9E7012104F1A4
:104E0C002800FFF771FD0546A9E72E46B0E70126FD
:104E1C003546CBE7B3F1804FBED0B3F1A04FBBD03A
:104E2C00B3F1405FB8D001263546BFE7012104F14C
:104E3C002800FFF759FD0546AEE72E46B6E7124AA5
:104E4C00D36A43F40033D36205E0012104F1080076
:104E5C00FFF76CFC0546A5B90B4A136D23F04053C4
:104E6C00E16E0B431365236813F0807F1DD0A36C98
:104E7C00032B00F28B81DFE813F00E000900820196
:104E8C000E002E46EFE700BF00440258B74AD36A23
:104E9C0043F40033D362002D40F07B81B34AD36CD2
:104EAC0023F00303A16C0B43D364236813F4800F2A
:104EBC0000F08D81D4F8B030B3F5807F18BFB3F516
:104ECC00007F00F00D81B3F50C5F00F00981B3F5A4
:104EDC004C5F00F00581B3F5864F00F00181B3F50E
:104EEC00A64F00F0FD80B3F5C64F00F0F980B3F586
:104EFC00E64F00F0F580B3F5034F00F0F180B3F509
:104F0C00134F00F0ED80B3F5234F00F0E980B3F5BB
:104F1C00334F00F0E580B3F5434F00F0E180B3F57B
:104F2C00534F00F0DD80B3F5634F00F0D980B3F53B
:104F3C00734F00F0D5808E4A934200F0D18002F579
:104F4C008052934200F0CC8002F58052934200F0E4
:104F5C00C78002F58052934200F0C28002F5805265
:104F6C00934200F0BD8002F58052934200F0B8806D
:104F7C0002F58052934200F0B38002F580529342C6
:104F8C0000F0AE8002F58052934200F0A98002F549
:104F9C008052934200F0A48002F58052934200F0BC
:104FAC009F8002F58052934200F09A8002F5805265
:104FBC00934200F0958002F58052934200F090806D
:104FCC0002F58052934200F08B8002F5805293429E
:104FDC0000F0868002F58052934200F0818002F549
:104FEC00805293427CD002F58052934278D002F5E5
:104FFC008052934274D002F58052934270D002F5E5
:10500C00805293426CD002F58052934268D002F5E4
:10501C008052934264D002F58052934260D002F5E4
:10502C00805293425CD002F58052934258D002F5E4
:10503C008052934254D002F58052934250D002F5E4
:10504C00805293424CD002F58052934248D002F5E4
:10505C008052934244D002F58052934240D002F5E4
:10506C00805293423CD002F58052934238D002F5E4
:10507C008052934234D002F58052934230D002F5E4
:10508C00805293422CD002F58052934228D002F5E4
:10509C008052934224D002F58052934220D002F5E4
:1050AC00805293421CD002F58052934218D002F5E4
:1050BC008052934214D002F58052934210D002F5E4
:1050CC00805293420CD002F58052934208D002F5E4
:1050DC008052934204D040F27D312648FBF742FCCB
:1050EC00254A136843F480731360FBF75BFD074696
:1050FC00214B1B6813F4807F05D1FBF753FDC01BBC
:10510C006428F5D90325002D60D1184B1B6FD4F8FA
:10511C00B020534013F4407F0CD0144B1A6F22F480
:10512C004072196F41F480311967196F21F4803185
:10513C0019671A67D4F8B030B3F5807F2BD0002DE7
:10514C0063D1D4F8B03003F44072B2F5407F33D061
:10515C00064A136923F47C53136104490B6FD4F88A
:10516C00B020C2F30B0213430B6707E00044025854
:10517C0000030100BC9C00080048025827E00221F3
:10518C0004F10800FFF7D2FA054684E601263546FD
:10519C008BE62E4689E6FBF705FD0746444B1B6F55
:1051AC0013F0020FCBD1FBF7FDFCC01B41F288338F
:1051BC009842F3D90325C2E73D48026922F47C5298
:1051CC003C4901EA131313430361C6E72E462368D7
:1051DC0013F0010F33D0A36F282B2ED8DFE803F088
:1051EC001D2D2D2D2D2D2D2D172D2D2D2D2D2D2D09
:1051FC00262D2D2D2D2D2D2D1D2D2D2D2D2D2D2DEA
:10520C001D2D2D2D2D2D2D2D1D002E46DFE70121C1
:10521C0004F10800FFF78AFA0546E5B9244A536DF4
:10522C0023F03803A16F0B43536508E0012104F10F
:10523C002800FFF759FB0546EFE7012635462368A2
:10524C0013F0020F17D0636F052B2CD8DFE803F097
:10525C000B05240B0B0B2E46F1E7012104F1080082
:10526C00FFF764FA05460DBB114A536D23F0070393
:10527C00616F0B435365236813F0040F2DD0D4F8E2
:10528C009030052B00F24681DFE813F01C0016006D
:10529C003D011C001C001C00012104F12800FFF73B
:1052AC0023FB0546DFE701263546E4E72E46E2E719
:1052BC0000440258CFFFFF00012104F10800FFF762
:1052CC0035FA0546002D40F02881B94A936D23F03C
:1052DC000703D4F890100B439365236813F0200F49
:1052EC001DD0D4F88C30B3F1005F00F02A8100F2AD
:1052FC0019814BB1B3F1805F40F01181002104F1B1
:10530C000800FFF713FA0546002D40F02181A84A4A
:10531C00536D23F0E043D4F88C100B435365236892
:10532C0013F0400F1DD0D4F89830B3F5006F00F097
:10533C00238100F212814BB1B3F5806F40F00A81EA
:10534C00002104F10800FFF7F1F90546002D40F0AB
:10535C001A81974A936D23F4E053D4F898100B43B9
:10536C009365236813F0800F1DD0D4F89C30B3F5EF
:10537C00804F00F01F8100F20B814BB1B3F5005F41
:10538C0040F00381002104F10800FFF7CFF9054636
:10539C00002D40F01681864A936D23F46043D4F8B7
:1053AC009C100B439365236813F0080F1AD0D4F8A4
:1053BC008030B3F5805F18BFB3F5005F04D01BB12C
:1053CC00B3F5405F40F0FF80D4F88030B3F5805FD8
:1053DC0000F0FF80764A536D23F44053D4F88010CC
:1053EC000B435365236813F0100F1AD0D4F8943084
:1053FC00B3F5807F18BFB3F5007F04D01BB1B3F5B4
:10540C00407F40F0F080D4F89430B3F5807F00F00A
:10541C00F080674A936D23F44073D4F894100B43D7
:10542C009365236813F4002F1CD0D4F8A030B3F587
:10543C00803F00F0E880B3F5003F08D0002B40F02F
:10544C00E980002104F10800FFF770F90546002DF2
:10545C0040F0E380564A936D23F44033D4F8A01007
:10546C000B439365236813F4802F1CD0D4F884303D
:10547C00B3F5001F00F0D380B3F5401F08D0B3F58F
:10548C00801F40F0D3804A4AD36A43F40033D3627E
:10549C00002D40F0CE80464A536D23F44013D4F8CF
:1054AC0084100B435365236813F4803F10D0236D95
:1054BC00002B18BFB3F5803F40F0BD80236D002B4F
:1054CC0000F0BF80B3F5803F00F0C980012635465F
:1054DC00236813F0005F40F0CB80236813F4003F87
:1054EC0000F0E280E36FB3F5807F00F0CE8040F2F5
:1054FC00C980B3F5007F00F0CD80B3F5407F00F09C
:10550C00C9800126D0E0012104F12800FFF7ECF955
:10551C000546D7E601263546DFE62E46DDE60126B2
:10552C003546FCE6B3F1804F3FF4EEAEB3F1A04F3D
:10553C003FF4EAAEB3F1405F3FF4E6AE01263546E8
:10554C00EDE6022104F12800FFF7CEF90546DBE673
:10555C002E46E4E60126354603E7B3F5805F3FF4BB
:10556C00F5AEB3F5A05F3FF4F1AEB3F5406F3FF489
:10557C00EDAE01263546F4E6022104F12800FFF7D2
:10558C00B3F90546E2E62E46EBE6012635460AE778
:10559C00B3F5004F3FF4FCAEB3F5204F3FF4F8AE3B
:1055AC00B3F5C04F3FF4F4AE01263546FBE600BF21
:1055BC0000440258022104F12800FFF795F9054632
:1055CC00E6E62E46EFE640F2FC419F48FBF7CAF9AF
:1055DC00FAE6022104F12800FFF786F900283FF4CF
:1055EC00F9AE0126F6E64FF4A4619748FBF7BAF939
:1055FC0009E7022104F12800FFF776F900283FF4AF
:10560C0008AF012605E7022104F12800FFF76CF929
:10561C0005461CE70126354624E72E4622E70121E4
:10562C0004F12800FFF760F9054631E701263546FD
:10563C0039E72E4637E740F286518348FBF792F95B
:10564C003CE7824AD36A43F40033D36275B97F4A8C
:10565C00D36C23F48033216D0B43D36438E70221E0
:10566C0004F10800FFF762F80546EFE72E462FE736
:10567C00022104F12800FFF737F900283FF42DAF81
:10568C0001262AE733B101260EE0704AD36A43F4AF
:10569C000033D3623DB96D4A536D23F44073E16F0F
:1056AC000B43536500E02E46236813F4801F0CD087
:1056BC00236F002B18BFB3F1004F71D1634A136DE8
:1056CC0023F00043216F0B431365236813F4001F71
:1056DC000CD0A36E002B18BFB3F1807F66D15B4A50
:1056EC00136D23F08073A16E0B431365236813F0C5
:1056FC00804F10D0D4F8B430002B18BFB3F5004F46
:10570C005AD1524B1A6922F400421A611A69D4F820
:10571C00B4100A431A612368002B0FDA636D002B57
:10572C0018BFB3F1805F02D0B3F1005F4AD1474A92
:10573C00D36C23F04053616D0B43D364236813F493
:10574C00000F11D0D4F88830002B18BFB3F5800FA0
:10575C0002D0B3F5000F3BD13C4A536D23F4400308
:10576C00D4F888100B435365636813F0010F35D1DF
:10577C00636813F0020F3AD1636813F0040F3FD142
:10578C00636813F0080F44D1636813F0100F49D10C
:10579C00636813F0200F4ED106B101263046F8BDD8
:1057AC0040F2E5512848FBF7DDF887E740F2F95164
:1057BC002548FBF7D7F892E740F20F612248FBF738
:1057CC00D1F89EE740F219611F48FBF7CBF8AEE722
:1057DC0040F223611C48FBF7C5F8BDE7002104F13A
:1057EC000800FEF7A3FF0028C2D00646C0E701213F
:1057FC0004F10800FEF79AFF0028BDD00646BBE76F
:10580C00022104F10800FEF791FF0028B8D00646EB
:10581C00B6E7002104F12800FFF766F80028B3D0A2
:10582C000646B1E7012104F12800FFF75DF80028D6
:10583C00AED00646ACE7022104F12800FFF754F87D
:10584C000028A9D00126A9E7BC9C000800440258F6
:10585C0008B5FEF737FF054B1B6AC3F30213044A66
:10586C00D35C03F01F03D84008BD00BF00440258AE
:10587C00E49D000810B4794B9A6A9C6AC4F3053C09
:10588C00D96AC1F30011DB6BC3F3CC0301FB03F347
:10589C0014F47C3F00F0DD8002F0030207EE903A36
:1058AC00F8EE677A012A4BD0022A00F09880002A81
:1058BC0040F0B280694B1B6813F0200F23D067496E
:1058CC000A68C2F3C102664BD34007EE103AF8EEF9
:1058DC00476A07EE10CAB8EE476A86EE867A8B6B7B
:1058EC00C3F3080306EE903AF8EE666A9FED5D6A24
:1058FC0067EE867A76EEA77AF7EE006A77EEA67AEE
:10590C0027EE277A38E007EE10CAF8EE476A9FEDCB
:10591C00566A86EE267A514B9B6BC3F3080306EE50
:10592C00903AF8EE666A9FED4F6A67EE867A76EEED
:10593C00A77AF7EE006A77EEA67A27EE277A1BE0B5
:10594C0007EE10CAF8EE476A9FED486A86EE267A93
:10595C00424B9B6BC3F3080306EE903AF8EE666A73
:10596C009FED406A67EE867A76EEA77AF7EE006ACC
:10597C0077EEA67A27EE277A384A936BC3F3462341
:10598C0007EE903AF8EE677AF7EE006A77EEA67AB1
:10599C0087EE276ABCEEC66A80ED006A936BC3F390
:1059AC00064307EE903AF8EE677A77EEA67A87EE22
:1059BC00276ABCEEC66A80ED016A936BC3F306637B
:1059CC0007EE903AF8EE677A77EEA67AC7EE276A7A
:1059DC00FCEEE66AC0ED026A5DF8044B704707EE18
:1059EC0010CAF8EE476A9FED226A86EE267A1B4BA8
:1059FC009B6BC3F3080306EE903AF8EE666A9FEDD4
:105A0C00196A67EE867A76EEA77AF7EE006A77EE79
:105A1C00A67A27EE277AAFE707EE10CAF8EE476AA8
:105A2C009FED126A86EE267A0C4B9B6BC3F3080330
:105A3C0006EE903AF8EE666A9FED0A6A67EE867A91
:105A4C0076EEA77AF7EE006A77EEA67A27EE277A3B
:105A5C0092E70023036043608360BDE70044025873
:105A6C000090D003000000390024744C0024744AC8
:105A7C00001BB74B10B4794B9A6A9C6AC4F3055C53
:105A8C00D96AC1F300215B6CC3F3CC0301FB03F3B4
:105A9C0014F07C7F00F0DD8002F0030207EE903AF8
:105AAC00F8EE677A012A4BD0022A00F09880002A7F
:105ABC0040F0B280694B1B6813F0200F23D067496C
:105ACC000A68C2F3C102664BD34007EE103AF8EEF7
